[
    {
        "log_id": "0f27099d-847a-4374-a81d-dada68bdf724",
        "keyword": "FreiburgBlockchain",
        "data_storage_mode": "embedded",
        "original_audit_content": "Sebastian ist beim Freiburg Blockchain Meetup",
        "timestamp_logged_local": "2026-03-05T18:41:14.086370+00:00",
        "format": "anchor-forge-v0.2:TLV:[AppID|Hash|PubKey|Sig|Cert|Data|Ref|Note]*",
        "blockchain_record": {
            "txid": "0ba0f7c37ccaab49d62ab7acc248af3d0edffa2d289d58dbacd6f811be10466c",
            "status": "confirmed",
            "data_hash_pushed_to_op_return": "99b43f69592f3673ac00d6e923af3ccaa4eb006d6fca0a89447b578125fea5c6",
            "signature_pushed_to_op_return": "304402202e444d5a1bb9f08884002b84f59439755762ec0d141f9589b8f727098bf951c902207b724bb1bd5f591697b52522618ffd17c1bda8500cdab1fdd407f47302d3fc67",
            "x509_hash_pushed": "99b43f69592f3673ac00d6e923af3ccaa4eb006d6fca0a89447b578125fea5c6",
            "x509_certificate_pushed": "-----BEGIN CERTIFICATE-----\nMIIDmDCCAoCgAwIBAgIUFdFpapw55Nn5zhC1A+8Q5Qde+qwwDQYJKoZIhvcNAQEL\nBQAwdTELMAkGA1UEBhMCREUxGzAZBgNVBAgMEkJhZGVuLVfDvHJ0dGVtYmVyZzER\nMA8GA1UEBwwIRnJlaWJ1cmcxHDAaBgNVBAoME0FuY2hvckZvcmdlIFByb2plY3Qx\nGDAWBgNVBAMMD3d3dy5leGFtcGxlLmNvbTAgFw0yNTA5MDYxMDE4NTZaGA8yMDUw\nMTIzMTAwMDAwMFowdTELMAkGA1UEBhMCREUxGzAZBgNVBAgMEkJhZGVuLVfDvHJ0\ndGVtYmVyZzERMA8GA1UEBwwIRnJlaWJ1cmcxHDAaBgNVBAoME0FuY2hvckZvcmdl\nIFByb2plY3QxGDAWBgNVBAMMD3d3dy5leGFtcGxlLmNvbTCCASIwDQYJKoZIhvcN\nAQEBBQADggEPADCCAQoCggEBAOpy7Yrbmg0mKnccGiS0niNfgDOAJYD4loeAvZBU\nkn3NAl5Dcix1c29afMcshG2o8gSsgZtDY0KUuNOI5KUxwAXMfa/3E/ORdlqMUlRM\nLnVkcT87NNH4QmAWone3lj4S5FRzNO6yQ+cItfgrY2p9lTswxVf6nuvlSNn2H+tx\npgupNJ5iNLlsK9wA8cuMLPrlVFl/kTJsgj9mnD4D/4emYUwGmzGsj/uMm53iC0XG\nkvQR5hARraOR1SKMIOcIsPLTxvw6L4KJ/YK/KkAR47gevuNDt0pgNwqrRkELFBRs\nn1a2uaQbUqau59uhhlA5v2Quq50AGx6OV58Ex5jCmKxpbncCAwEAAaMeMBwwGgYD\nVR0RBBMwEYIPd3d3LmV4YW1wbGUuY29tMA0GCSqGSIb3DQEBCwUAA4IBAQBbZQCz\nmGKMr6YR5KnIVU7ojkMvdV0wjX7rFqYhsfBYFP2vkweJDLP/O0+0Lp4VLeSM5b8p\nIW2ZxJDZuVbNGNDkql9Kmu57wOlbuHFp9Bp8Wh4+UValFakr+85dBdf3nELWwZHk\nuNRFlgc0hPoIdHOSTSq6G9vjUZkH6nvpCXtx1EC1hLebdmcgRbR1IbsI59ypbvW+\nW2zap1kIHxzdUPVABbPWSoF15kQWw3r4xXWTbC4MTVtB59P1Av8NNQytnzyrY1wP\njV8JIlJ4eacJDlrSdKpcpTfmB/nt+jXx/QTmH5Gosx8tXFzp5zUkmWX9mevBU0lm\nWqah+/CfoTAwnmRA\n-----END CERTIFICATE-----\n",
            "tx_note": null,
            "raw_transaction_hex": "0100000001ae834c213f537b7b583ba516238762bec4862803f23fd10809fa92e569448d6b6b0000006b483045022100bc323a2780dd98335d410092f74c04ca0d50929dda9f36b728fc13ade0c25bd302204fbd5d233d59cacc19e3fd294080d6dba581bc780cdf854a8cac633566c1d65541210354601a2b7d56ac7d32b6354140b1258a41f39feb1715a3d697d20d6206b71fb6ffffffff020000000000000000fdff06006a01f010416e63686f72466f7267652076302e320148210099b43f69592f3673ac00d6e923af3ccaa4eb006d6fca0a89447b578125fea5c601442e0153656261737469616e20697374206265696d20467265696275726720426c6f636b636861696e204d656574757001502200033c4a705bd2cb5718e6c516da6009a0133c3ebb6f3f4bf5f060466503f0e2599f01534701304402202e444d5a1bb9f08884002b84f59439755762ec0d141f9589b8f727098bf951c902207b724bb1bd5f591697b52522618ffd17c1bda8500cdab1fdd407f47302d3fc6701434d1b05002d2d2d2d2d424547494e2043455254494649434154452d2d2d2d2d0a4d4949446d444343416f436741774942416749554664467061707735354e6e357a684331412b3851355164652b7177774451594a4b6f5a496876634e4151454c0a425141776454454c4d416b474131554542684d4352455578477a415a42674e564241674d456b4a685a4756754c56664476484a3064475674596d56795a7a45520a4d4138474131554542777749526e4a6c61574a31636d63784844416142674e5642416f4d4530467559326876636b5a76636d646c494642796232706c593351780a4744415742674e5642414d4d443364336479356c654746746347786c4c6d4e7662544167467730794e5441354d4459784d4445344e545a61474138794d4455770a4d54497a4d5441774d4441774d466f776454454c4d416b474131554542684d4352455578477a415a42674e564241674d456b4a685a4756754c56664476484a300a64475674596d56795a7a45524d4138474131554542777749526e4a6c61574a31636d63784844416142674e5642416f4d4530467559326876636b5a76636d646c0a494642796232706c593351784744415742674e5642414d4d443364336479356c654746746347786c4c6d4e7662544343415349774451594a4b6f5a496876634e0a4151454242514144676745504144434341516f4367674542414f7079375972626d67306d4b6e6363476953306e694e6667444f414a5944346c6f6541765a42550a6b6e334e416c35446369783163323961664d63736847326f38675373675a744459304b55754e4f49354b55787741584d66612f33452f4f52646c714d556c524d0a4c6e566b635438374e4e4834516d41576f6e65336c6a34533546527a4e4f3679512b634974666772593270396c547377785666366e75766c534e6e32482b74780a706775704e4a35694e4c6c734b3977413863754d4c50726c56466c2f6b544a73676a396d6e4434442f34656d595577476d7a47736a2f754d6d353369433058470a6b7651523568415272614f5231534b4d494f634973504c54787677364c344b4a2f594b2f4b6b41523437676576754e44743070674e777172526b454c464252730a6e316132756151625571617535397568686c413576325175713530414778364f5635384578356a436d4b7870626e63434177454141614d654d427777476759440a5652305242424d7745594950643364334c6d56345957317762475575593239744d4130474353714753496233445145424377554141344942415142625a51437a0a6d474b4d72365952354b6e495655376f6a6b4d76645630776a5837724671596873664259465032766b77654a444c502f4f302b304c7034564c65534d356238700a4957325a784a445a7556624e474e446b716c394b6d753537774f6c6275484670394270385768342b5556616c46616b722b383564426466336e454c57775a486b0a754e52466c67633068506f4964484f53545371364739766a555a6b48366e76704358747831454331684c6562646d63675262523149627349353979706276572b0a57327a6170316b4948787a645550564142625057536f4631356b515777337234785857546243344d54567442353950314176384e4e5179746e7a7972593177500a6a56384a496c4a346561634a446c7253644b70637054666d422f6e742b6a58782f51546d4835476f7378387458467a70357a556b6d5758396d65764255306c6d0a577161682b2f43666f5441776e6d52410a2d2d2d2d2d454e442043455254494649434154452d2d2d2d2d0a01584d01010198e8897f0f9ef952a2e2293e69c5c5577215f5f9dbc9a5e57244f16aceee296e62dd2470ed18b5b6f22e56b0247810cec325ff6246395f3ec2fb864cbb99d8ac7e923e6311483b8130d032d799322b4bbc7539667dbb08621582a0addea754d264042527d5bc9047e4c18dc0ec9128e224c1b558dbf77640d54373cddbdb2275c23c391650f347340c68c86bfd8ad480153e210a16134739638720413f39155684eaf2986f78e4c2db87fd9f66d541d9d14ad8b25d145a9cc0d85918123d22d6d704feca65fa7ad28cb2fe67a006f87860bad0ce55c749918dd90c8f840343d0a705931b32219a1bc626ccdcbb476b4d0a1fdfff44726cc1bc9152ce40ca03ca72380000000000001976a91479813ed80c6535ea243a92271a0a1a207c59222888ac00000000",
            "timestamp_broadcasted_utc": "2026-03-05T18:41:14.306034+00:00",
            "fee_satoshis": 200,
            "inputs": [
                {
                    "txid": "6b8d4469e592fa0908d13ff2032886c4be62872316a53b587b7b533f214c83ae",
                    "vout": 107,
                    "satoshis": 14650,
                    "height": -1,
                    "used": true,
                    "timestamp": "2026-02-25T21:55:33.588603+00:00",
                    "used_in_txid": "0ba0f7c37ccaab49d62ab7acc248af3d0edffa2d289d58dbacd6f811be10466c",
                    "used_timestamp": "2026-03-05T18:41:14.307033+00:00"
                }
            ],
            "outputs": [
                {
                    "txid": "0ba0f7c37ccaab49d62ab7acc248af3d0edffa2d289d58dbacd6f811be10466c",
                    "vout": 1,
                    "satoshis": 14450,
                    "scriptPubKey": "76a91479813ed80c6535ea243a92271a0a1a207c59222888ac",
                    "height": -1,
                    "used": false,
                    "timestamp": "2026-03-05T18:41:14.306034+00:00"
                }
            ],
            "block_hash": "00000000000000000adc95ca8d2fc6520ce5b9134546426e76c3dbb0eeca0004",
            "block_height": 939064,
            "timestamp_confirmed_utc": "2026-03-05T19:06:18.922501+00:00",
            "merkle_proof_tsc_data": {
                "index": 275,
                "txOrId": "0ba0f7c37ccaab49d62ab7acc248af3d0edffa2d289d58dbacd6f811be10466c",
                "target": "00000000000000000adc95ca8d2fc6520ce5b9134546426e76c3dbb0eeca0004",
                "nodes": [
                    "b90e3e1cc398161d93533378901b7d1eefa69eb67657004f3322a23350c4c366",
                    "8d88cbe4b4cbf6492a30acfa205816a57a4d2e2d75e6b4e757b5c66e09e86b8b",
                    "a31fee1699b3ac6a746bd158b8bc7f183820474dbf0d78b09f61cdb65139cf1a",
                    "f833e41d60b105567ad6a9b58f24697fd5ee9d1eceb3330641979cb0ed5b33e7",
                    "1e4d54081743b4104c8cf43e8fc7a3d0bc5aa76830ce863a8cd8c024a579b121",
                    "9c6b7f88e5f73ca3dd6dd594d91c2bd36e676f13d2c60e6e99b4d25d56ebf7fe",
                    "1c27ed9ac82b86cd1125ec5bdfe691d8c7fa957beb943f66ba7f1dfbd04f31dc",
                    "d3d5b14f302f1225645b1f5fa3e91dd5f994fdc95ba4a044c7cd0d89c3445d9b",
                    "558f1fe24d2e8ee08ff7e2ab954894f674aa7e9ff336fec243807254e0ab36f9"
                ]
            },
            "tsc_proof_added_utc": "2026-03-05T19:06:18.922501+00:00",
            "merkle_proof_tsc_size_bytes": 793
        },
        "notes": ""
    }
]