[
    {
        "log_id": "add2daa2-8701-40d3-b028-0ba32a989478",
        "keyword": "genesis_v0.2",
        "data_storage_mode": "embedded",
        "original_audit_content": "AnchorForge v0.2 example data",
        "timestamp_logged_local": "2026-02-26T12:02:21.064483+00:00",
        "format": "anchor-forge-v0.2:TLV:[AppID|Hash|PubKey|Sig|Cert|Data|Ref|Note]*",
        "blockchain_record": {
            "txid": "41bd1084bb877acb31df59f76c10adeba98e3c399e6c7a6a48a9f9282786dc33",
            "status": "confirmed",
            "data_hash_pushed_to_op_return": "703beee04138de1286e3a2bb552dc48e80cdf5cc8e2539b4c8333840ac1fb99a",
            "signature_pushed_to_op_return": "304502210081f3298eab38bacc6c921ace6d7557d5abd95df76ddf850f74ae07cf0251e93602207aabfa892a759d2227a5414a667684b63b2853cf27d038e6382b0be748cf9a4f",
            "x509_hash_pushed": "703beee04138de1286e3a2bb552dc48e80cdf5cc8e2539b4c8333840ac1fb99a",
            "x509_certificate_pushed": "-----BEGIN CERTIFICATE-----\nMIIDmDCCAoCgAwIBAgIUFdFpapw55Nn5zhC1A+8Q5Qde+qwwDQYJKoZIhvcNAQEL\nBQAwdTELMAkGA1UEBhMCREUxGzAZBgNVBAgMEkJhZGVuLVfDvHJ0dGVtYmVyZzER\nMA8GA1UEBwwIRnJlaWJ1cmcxHDAaBgNVBAoME0FuY2hvckZvcmdlIFByb2plY3Qx\nGDAWBgNVBAMMD3d3dy5leGFtcGxlLmNvbTAgFw0yNTA5MDYxMDE4NTZaGA8yMDUw\nMTIzMTAwMDAwMFowdTELMAkGA1UEBhMCREUxGzAZBgNVBAgMEkJhZGVuLVfDvHJ0\ndGVtYmVyZzERMA8GA1UEBwwIRnJlaWJ1cmcxHDAaBgNVBAoME0FuY2hvckZvcmdl\nIFByb2plY3QxGDAWBgNVBAMMD3d3dy5leGFtcGxlLmNvbTCCASIwDQYJKoZIhvcN\nAQEBBQADggEPADCCAQoCggEBAOpy7Yrbmg0mKnccGiS0niNfgDOAJYD4loeAvZBU\nkn3NAl5Dcix1c29afMcshG2o8gSsgZtDY0KUuNOI5KUxwAXMfa/3E/ORdlqMUlRM\nLnVkcT87NNH4QmAWone3lj4S5FRzNO6yQ+cItfgrY2p9lTswxVf6nuvlSNn2H+tx\npgupNJ5iNLlsK9wA8cuMLPrlVFl/kTJsgj9mnD4D/4emYUwGmzGsj/uMm53iC0XG\nkvQR5hARraOR1SKMIOcIsPLTxvw6L4KJ/YK/KkAR47gevuNDt0pgNwqrRkELFBRs\nn1a2uaQbUqau59uhhlA5v2Quq50AGx6OV58Ex5jCmKxpbncCAwEAAaMeMBwwGgYD\nVR0RBBMwEYIPd3d3LmV4YW1wbGUuY29tMA0GCSqGSIb3DQEBCwUAA4IBAQBbZQCz\nmGKMr6YR5KnIVU7ojkMvdV0wjX7rFqYhsfBYFP2vkweJDLP/O0+0Lp4VLeSM5b8p\nIW2ZxJDZuVbNGNDkql9Kmu57wOlbuHFp9Bp8Wh4+UValFakr+85dBdf3nELWwZHk\nuNRFlgc0hPoIdHOSTSq6G9vjUZkH6nvpCXtx1EC1hLebdmcgRbR1IbsI59ypbvW+\nW2zap1kIHxzdUPVABbPWSoF15kQWw3r4xXWTbC4MTVtB59P1Av8NNQytnzyrY1wP\njV8JIlJ4eacJDlrSdKpcpTfmB/nt+jXx/QTmH5Gosx8tXFzp5zUkmWX9mevBU0lm\nWqah+/CfoTAwnmRA\n-----END CERTIFICATE-----\n",
            "tx_note": "**SPV-based Off-Chain Data Verification (AnchorForge v0.2)**\n\n**Overview**\nTransactions from and to this address are part of a Proof-of-Concept for preparing off-chain integrity proofs of arbitrary data records (e.g., AI interactions, audit logs, documents, images) using Bitcoin's Simplified Payment Verification (SPV, Bitcoin Whitepaper Sec. 8). A verifier needs only an Integrity Record and a local cache of block headers \u2014 no live blockchain access is required.\n\n**Create Integrity Record**\nFor any data `D` and key pair `I` (with private key `PrK` and public key/certificate `PuK`):\n- Hash: Compute `H = Hash(D)` (fingerprint the data).\n- Sign: Create `S = Sign(H, PrK)` (prove authorship using ECDSA or X.509).\n- Transaction: Build `Tx` with `H`, `S`, `PuK`, embedded in a Safe OP_RETURN (OP_FALSE OP_RETURN) output.\n- Broadcast: Send `Tx` to blockchain.\n- Merkle Proof: Get `M` (Merkle Proof) for `TxId` after confirmation.\n- Store: Save `R = (D, rawTx, TxId, M)` locally as the Integrity Record.\n\n**Verify Integrity Locally**\nWith `R` and local block headers `BH`, a verifier checks:\n- Integrity: Confirm `Hash(R.D)` matches `H` in `R.rawTx` (data is unchanged).\n- Authenticity: Verify `S` is valid for `H` using `PuK` or X.509 Certificate (proves authorship).\n- Consistency: Ensure `Hash(R.rawTx)` equals `R.TxId` (transaction is authentic).\n- Blockchain Inclusion: Confirm `M` proves `R.TxId` is in `BH`\u2019s merkle root (transaction is on-chain).\n\n**PoC:** github.com/40ps/AnchorForge.\n**Format:** Safe OP_RETURN uses a TLV (Tag-Length-Value) architecture holding flexible tags: [AppID|Hash|PubKey|Sig|Cert|Data|Ref|Note].\n\n**AnchorForge v0.2: TLV Payload Decoder**\n\nThe Integrity Record contains a `raw_tx` hex string. To parse the AnchorForge OP_RETURN payload, look for `OP_FALSE OP_RETURN` followed by these Tag-Length-Value (TLV) blocks. \n\n**Tags (Hex / ASCII):**\n* `f0` (AppID): Identifies the AnchorForge protocol and version.\n* `48` ('H'): Hash of the anchored data (Prefix `00` = SHA256).\n* `50` ('P'): Public Key for ECDSA (Prefix `00` = Compressed).\n* `53` ('S'): ECDSA Signature (Prefix `01` = DER format).\n* `43` ('C'): X.509 Certificate (Prefix `01` = PEM format).\n* `44` ('D'): Embedded On-Chain Data (Prefix `00` = UTF-8, `01` = RAW).\n* `4e` ('N'): Transaction Note (Plain text).\n* `58` ('X'): External Reference / URI.\n\n**Parsing Rule:** [Push-Opcode] + [TAG] + [Length-Opcode] + [Prefix-Byte] + [Value]\n\n\n**Example**\n- This transaction is the result of anchoring `D`=\"AnchorForge v0.2 example data\" using the embedded mode.\n- The OP_RETURN contains the hash (72 / 0x48), signatures, and public keys/certificates for both ECDSA and X.509.\n- Additionally, the `D` is embedded on-chain as `Data` (68 / 0x44).\n- You can compare the `Hash` of `D` via sha256sum or online tools.\n- This complete text is attached as a `Note` (78 / 0x4E) to demonstrate the TLV flexibility.\n- The next transaction to this address will present the Integrity Record `R` to verify this `D` is unchanged using e.g. AnchorForge. It contains: `D`, `TxId`, `rawTx`, `M` (Merkle path after the Tx got confirmed).\n- Based on this locally stored information and the blockheader of the confirming block, the information can be fully verified.\n\n- A further transaction will demonstrate anchoring (and embedding small) files by anchoring the Integrity Record to describe this transaction.\n\n((Pitfalls: Hashing text files across different operating systems can alter line endings, and copy-pasting via Ctrl+C/V often introduces hidden characters. Be aware of this when manually verifying hashes!)\n\n**History**\nGenesis of v0.1: **5cd8197616fab4a6579ccdd3a782e229c84c0238975aefdb3ea1007a8b1ef6c8** 2025-09-25",
            "raw_transaction_hex": "0100000001ae834c213f537b7b583ba516238762bec4862803f23fd10809fa92e569448d6b000000006b483045022100e9779988bdaec98f013fc428d2acf4eb40275506df9e818b77083d8c9621d5320220374ac0d497d711be9d9abcbd024c6bf991bd74d5839641f6a30867968e1204a441210354601a2b7d56ac7d32b6354140b1258a41f39feb1715a3d697d20d6206b71fb6ffffffff020000000000000000fd6615006a01f010416e63686f72466f7267652076302e3201482100703beee04138de1286e3a2bb552dc48e80cdf5cc8e2539b4c8333840ac1fb99a01441e01416e63686f72466f7267652076302e32206578616d706c65206461746101502200033c4a705bd2cb5718e6c516da6009a0133c3ebb6f3f4bf5f060466503f0e2599f01534801304502210081f3298eab38bacc6c921ace6d7557d5abd95df76ddf850f74ae07cf0251e93602207aabfa892a759d2227a5414a667684b63b2853cf27d038e6382b0be748cf9a4f01434d1b05002d2d2d2d2d424547494e2043455254494649434154452d2d2d2d2d0a4d4949446d444343416f436741774942416749554664467061707735354e6e357a684331412b3851355164652b7177774451594a4b6f5a496876634e4151454c0a425141776454454c4d416b474131554542684d4352455578477a415a42674e564241674d456b4a685a4756754c56664476484a3064475674596d56795a7a45520a4d4138474131554542777749526e4a6c61574a31636d63784844416142674e5642416f4d4530467559326876636b5a76636d646c494642796232706c593351780a4744415742674e5642414d4d443364336479356c654746746347786c4c6d4e7662544167467730794e5441354d4459784d4445344e545a61474138794d4455770a4d54497a4d5441774d4441774d466f776454454c4d416b474131554542684d4352455578477a415a42674e564241674d456b4a685a4756754c56664476484a300a64475674596d56795a7a45524d4138474131554542777749526e4a6c61574a31636d63784844416142674e5642416f4d4530467559326876636b5a76636d646c0a494642796232706c593351784744415742674e5642414d4d443364336479356c654746746347786c4c6d4e7662544343415349774451594a4b6f5a496876634e0a4151454242514144676745504144434341516f4367674542414f7079375972626d67306d4b6e6363476953306e694e6667444f414a5944346c6f6541765a42550a6b6e334e416c35446369783163323961664d63736847326f38675373675a744459304b55754e4f49354b55787741584d66612f33452f4f52646c714d556c524d0a4c6e566b635438374e4e4834516d41576f6e65336c6a34533546527a4e4f3679512b634974666772593270396c547377785666366e75766c534e6e32482b74780a706775704e4a35694e4c6c734b3977413863754d4c50726c56466c2f6b544a73676a396d6e4434442f34656d595577476d7a47736a2f754d6d353369433058470a6b7651523568415272614f5231534b4d494f634973504c54787677364c344b4a2f594b2f4b6b41523437676576754e44743070674e777172526b454c464252730a6e316132756151625571617535397568686c413576325175713530414778364f5635384578356a436d4b7870626e63434177454141614d654d427777476759440a5652305242424d7745594950643364334c6d56345957317762475575593239744d4130474353714753496233445145424377554141344942415142625a51437a0a6d474b4d72365952354b6e495655376f6a6b4d76645630776a5837724671596873664259465032766b77654a444c502f4f302b304c7034564c65534d356238700a4957325a784a445a7556624e474e446b716c394b6d753537774f6c6275484670394270385768342b5556616c46616b722b383564426466336e454c57775a486b0a754e52466c67633068506f4964484f53545371364739766a555a6b48366e76704358747831454331684c6562646d63675262523149627349353979706276572b0a57327a6170316b4948787a645550564142625057536f4631356b515777337234785857546243344d54567442353950314176384e4e5179746e7a7972593177500a6a56384a496c4a346561634a446c7253644b70637054666d422f6e742b6a58782f51546d4835476f7378387458467a70357a556b6d5758396d65764255306c6d0a577161682b2f43666f5441776e6d52410a2d2d2d2d2d454e442043455254494649434154452d2d2d2d2d0a01584d0101018fcc216b807d20e5c76f670300f0084be8e662ba7c3e09441e7201afc48acc90aaa8710ec524f31b2b3930e4843ed65c9ede9aad172c87a463c0f873eddddce74f8b167a16258d594f1e5845eda5ccd79b16e66376a444d4e5cc43faab0c4b90ed7e9feb28c9032da02cf6042b60bdb73ae2eb74c9c5b564b30cbf1e5cec85397e1dd8e2b6868db9672ef8ddc13673eb9ecd1d48de2a1670f9802b81b2d26efa2d142dc19dbbaa8da7dbf1e36c079aae079ab473e0e6690ffa85b749564738d722458dc1ce67adf268abf7fd8b4523f5d73c82018ef0aca9469a8006879aa56de56e9ff7e5e29e06fc46f73dfa7bf9feacfa4b6468d9c1d51ea4a866aff8de4b014e4d710e2a2a5350562d6261736564204f66662d436861696e204461746120566572696669636174696f6e2028416e63686f72466f7267652076302e32292a2a0a0a2a2a4f766572766965772a2a0a5472616e73616374696f6e732066726f6d20616e6420746f20746869732061646472657373206172652070617274206f6620612050726f6f662d6f662d436f6e6365707420666f7220707265706172696e67206f66662d636861696e20696e746567726974792070726f6f6673206f66206172626974726172792064617461207265636f7264732028652e672e2c20414920696e746572616374696f6e732c206175646974206c6f67732c20646f63756d656e74732c20696d6167657329207573696e6720426974636f696e27732053696d706c6966696564205061796d656e7420566572696669636174696f6e20285350562c20426974636f696e2057686974657061706572205365632e2038292e2041207665726966696572206e65656473206f6e6c7920616e20496e74656772697479205265636f726420616e642061206c6f63616c206361636865206f6620626c6f636b206865616465727320e28094206e6f206c69766520626c6f636b636861696e206163636573732069732072657175697265642e0a0a2a2a43726561746520496e74656772697479205265636f72642a2a0a466f7220616e7920646174612060446020616e64206b65792070616972206049602028776974682070726976617465206b6579206050724b6020616e64207075626c6963206b65792f6365727469666963617465206050754b60293a0a2d20486173683a20436f6d70757465206048203d204861736828442960202866696e6765727072696e74207468652064617461292e0a2d205369676e3a20437265617465206053203d205369676e28482c2050724b2960202870726f766520617574686f7273686970207573696e67204543445341206f7220582e353039292e0a2d205472616e73616374696f6e3a204275696c6420605478602077697468206048602c206053602c206050754b602c20656d62656464656420696e20612053616665204f505f52455455524e20284f505f46414c5345204f505f52455455524e29206f75747075742e0a2d2042726f6164636173743a2053656e64206054786020746f20626c6f636b636861696e2e0a2d204d65726b6c652050726f6f663a2047657420604d6020284d65726b6c652050726f6f662920666f722060547849646020616674657220636f6e6669726d6174696f6e2e0a2d2053746f72653a2053617665206052203d2028442c2072617754782c20547849642c204d2960206c6f63616c6c792061732074686520496e74656772697479205265636f72642e0a0a2a2a56657269667920496e74656772697479204c6f63616c6c792a2a0a576974682060526020616e64206c6f63616c20626c6f636b206865616465727320604248602c206120766572696669657220636865636b733a0a2d20496e746567726974793a20436f6e6669726d20604861736828522e442960206d6174636865732060486020696e2060522e72617754786020286461746120697320756e6368616e676564292e0a2d2041757468656e7469636974793a20566572696679206053602069732076616c696420666f7220604860207573696e67206050754b60206f7220582e353039204365727469666963617465202870726f76657320617574686f7273686970292e0a2d20436f6e73697374656e63793a20456e7375726520604861736828522e7261775478296020657175616c732060522e547849646020287472616e73616374696f6e2069732061757468656e746963292e0a2d20426c6f636b636861696e20496e636c7573696f6e3a20436f6e6669726d20604d602070726f7665732060522e547849646020697320696e2060424860e2809973206d65726b6c6520726f6f7420287472616e73616374696f6e206973206f6e2d636861696e292e0a0a2a2a506f433a2a2a206769746875622e636f6d2f343070732f416e63686f72466f7267652e0a2a2a466f726d61743a2a2a2053616665204f505f52455455524e2075736573206120544c5620285461672d4c656e6774682d56616c7565292061726368697465637475726520686f6c64696e6720666c657869626c6520746167733a205b41707049447c486173687c5075624b65797c5369677c436572747c446174617c5265667c4e6f74655d2e0a0a2a2a416e63686f72466f7267652076302e323a20544c56205061796c6f6164204465636f6465722a2a0a0a54686520496e74656772697479205265636f726420636f6e7461696e73206120607261775f7478602068657820737472696e672e20546f2070617273652074686520416e63686f72466f726765204f505f52455455524e207061796c6f61642c206c6f6f6b20666f7220604f505f46414c5345204f505f52455455524e6020666f6c6c6f776564206279207468657365205461672d4c656e6774682d56616c75652028544c562920626c6f636b732e200a0a2a2a546167732028486578202f204153434949293a2a2a0a2a206066306020284170704944293a204964656e7469666965732074686520416e63686f72466f7267652070726f746f636f6c20616e642076657273696f6e2e0a2a20603438602028274827293a2048617368206f662074686520616e63686f726564206461746120285072656669782060303060203d20534841323536292e0a2a20603530602028275027293a205075626c6963204b657920666f7220454344534120285072656669782060303060203d20436f6d70726573736564292e0a2a20603533602028275327293a204543445341205369676e617475726520285072656669782060303160203d2044455220666f726d6174292e0a2a20603433602028274327293a20582e35303920436572746966696361746520285072656669782060303160203d2050454d20666f726d6174292e0a2a20603434602028274427293a20456d626564646564204f6e2d436861696e204461746120285072656669782060303060203d205554462d382c2060303160203d20524157292e0a2a20603465602028274e27293a205472616e73616374696f6e204e6f74652028506c61696e2074657874292e0a2a20603538602028275827293a2045787465726e616c205265666572656e6365202f205552492e0a0a2a2a50617273696e672052756c653a2a2a205b507573682d4f70636f64655d202b205b5441475d202b205b4c656e6774682d4f70636f64655d202b205b5072656669782d427974655d202b205b56616c75655d0a0a0a2a2a4578616d706c652a2a0a2d2054686973207472616e73616374696f6e2069732074686520726573756c74206f6620616e63686f72696e67206044603d22416e63686f72466f7267652076302e32206578616d706c65206461746122207573696e672074686520656d626564646564206d6f64652e0a2d20546865204f505f52455455524e20636f6e7461696e7320746865206861736820283732202f2030783438292c207369676e6174757265732c20616e64207075626c6963206b6579732f63657274696669636174657320666f7220626f746820454344534120616e6420582e3530392e0a2d204164646974696f6e616c6c792c207468652060446020697320656d626564646564206f6e2d636861696e2061732060446174616020283638202f2030783434292e0a2d20596f752063616e20636f6d706172652074686520604861736860206f6620604460207669612073686132353673756d206f72206f6e6c696e6520746f6f6c732e0a2d205468697320636f6d706c6574652074657874206973206174746163686564206173206120604e6f74656020283738202f20307834452920746f2064656d6f6e7374726174652074686520544c5620666c65786962696c6974792e0a2d20546865206e657874207472616e73616374696f6e20746f207468697320616464726573732077696c6c2070726573656e742074686520496e74656772697479205265636f72642060526020746f2076657269667920746869732060446020697320756e6368616e676564207573696e6720652e672e20416e63686f72466f7267652e20497420636f6e7461696e733a206044602c206054784964602c20607261775478602c20604d6020284d65726b6c6520706174682061667465722074686520547820676f7420636f6e6669726d6564292e0a2d204261736564206f6e2074686973206c6f63616c6c792073746f72656420696e666f726d6174696f6e20616e642074686520626c6f636b686561646572206f662074686520636f6e6669726d696e6720626c6f636b2c2074686520696e666f726d6174696f6e2063616e2062652066756c6c792076657269666965642e0a0a2d20412066757274686572207472616e73616374696f6e2077696c6c2064656d6f6e73747261746520616e63686f72696e672028616e6420656d62656464696e6720736d616c6c292066696c657320627920616e63686f72696e672074686520496e74656772697479205265636f726420746f2064657363726962652074686973207472616e73616374696f6e2e0a0a282850697466616c6c733a2048617368696e6720746578742066696c6573206163726f737320646966666572656e74206f7065726174696e672073797374656d732063616e20616c746572206c696e6520656e64696e67732c20616e6420636f70792d70617374696e6720766961204374726c2b432f56206f6674656e20696e74726f64756365732068696464656e20636861726163746572732e204265206177617265206f662074686973207768656e206d616e75616c6c7920766572696679696e672068617368657321290a0a2a2a486973746f72792a2a0a47656e65736973206f662076302e313a202a2a356364383139373631366661623461363537396363646433613738326532323963383463303233383937356165666462336561313030376138623165663663382a2a20323032352d30392d323501370000000000001976a91479813ed80c6535ea243a92271a0a1a207c59222888ac00000000",
            "timestamp_broadcasted_utc": "2026-02-26T12:02:21.625055+00:00",
            "fee_satoshis": 569,
            "inputs": [
                {
                    "txid": "6b8d4469e592fa0908d13ff2032886c4be62872316a53b587b7b533f214c83ae",
                    "vout": 0,
                    "satoshis": 14650,
                    "height": -1,
                    "used": true,
                    "timestamp": "2026-02-25T21:55:33.587604+00:00",
                    "used_in_txid": "41bd1084bb877acb31df59f76c10adeba98e3c399e6c7a6a48a9f9282786dc33",
                    "used_timestamp": "2026-02-26T12:02:21.625055+00:00"
                }
            ],
            "outputs": [
                {
                    "txid": "41bd1084bb877acb31df59f76c10adeba98e3c399e6c7a6a48a9f9282786dc33",
                    "vout": 1,
                    "satoshis": 14081,
                    "scriptPubKey": "76a91479813ed80c6535ea243a92271a0a1a207c59222888ac",
                    "height": -1,
                    "used": false,
                    "timestamp": "2026-02-26T12:02:21.625055+00:00"
                }
            ],
            "block_hash": "0000000000000000157ac2a479b4b4ab0a9e6b2dc15e76ca7e1f5e61c83762b9",
            "block_height": 938027,
            "timestamp_confirmed_utc": "2026-02-26T21:44:55.304601+00:00",
            "merkle_proof_tsc_data": {
                "index": 67,
                "txOrId": "41bd1084bb877acb31df59f76c10adeba98e3c399e6c7a6a48a9f9282786dc33",
                "target": "0000000000000000157ac2a479b4b4ab0a9e6b2dc15e76ca7e1f5e61c83762b9",
                "nodes": [
                    "84cca44955665f2fbe26083318dad2001ba7ed357b13b491014463b85713a776",
                    "73d153cc3466ca7aced4f2ffb8f4dd9ccb22b35a424037c5eb3bbdd9eff988dc",
                    "0c10184162d46babdfe357794a2aa49aa14d4ad1c0fc502882931315b5d6e055",
                    "660ecc3ee6506f8e1c688c308b823abe11ca364e0f9ddffa2424ed5c933dac04",
                    "668b2c65adae94c9fa103a65e6b46588324263da994bf56a8508bbe6c0216c17",
                    "84aed470c608bced4211d42b8c0625d6bccb03c7e3828dc817e56b906110caad",
                    "543f8e9b1acce4131dcc5cc88c71006c44d82f41203c613437a22af44d728925"
                ]
            },
            "tsc_proof_added_utc": "2026-02-26T21:44:55.304601+00:00",
            "merkle_proof_tsc_size_bytes": 656
        },
        "notes": "**AnchorForge Integrity Record (Inception Payload)**\n\nThis JSON object is a complete, self-contained SPV proof generated by AnchorForge. It includes:\n- The original anchored data (`original_audit_content` / `original_file_hash`)\n- The raw blockchain transaction (`raw_tx`)\n- The Transaction ID (`txid`)\n- The Merkle path (`merkle_proof`), acquired after block confirmation.\n\nTogether with a local block header, this structure allows cryptographically secure, off-chain verification of the data's integrity and timestamp. \nThis specific record serves as the payload for the AnchorForge Genesis 2 (Inception) transaction, demonstrating the protocol's ability to secure complex, nested audit trails.\n\n**AnchorForge v0.2: TLV Payload Decoder**\n\nThis Integrity Record contains a `raw_tx` hex string. To parse the AnchorForge OP_RETURN payload, look for `OP_FALSE OP_RETURN` followed by these Tag-Length-Value (TLV) blocks. \n\n**Tags (Hex / ASCII):**\n* `f0` (AppID): Identifies the AnchorForge protocol and version.\n* `48` ('H'): Hash of the anchored data (Prefix `00` = SHA256).\n* `50` ('P'): Public Key for ECDSA (Prefix `00` = Compressed).\n* `53` ('S'): ECDSA Signature (Prefix `01` = DER format).\n* `43` ('C'): X.509 Certificate (Prefix `01` = PEM format).\n* `44` ('D'): Embedded On-Chain Data (Prefix `00` = UTF-8, `01` = RAW).\n* `4e` ('N'): Transaction Note (Plain text).\n* `58` ('X'): External Reference / URI.\n\n**Parsing Rule:** [Push-Opcode] + [TAG] + [Length-Opcode] + [Prefix-Byte] + [Value]",
        "verification_summary": {
            "log_id": "add2daa2-8701-40d3-b028-0ba32a989478",
            "verification_timestamp_utc": "2026-02-26T21:51:03.008149+00:00",
            "overall_status": "success",
            "checks_performed": [
                "check_tx_consistency",
                "check_ec_hash",
                "check_x509_hash",
                "check_spv_proof"
            ],
            "failures": []
        }
    }
]